:020000040800F2
:1000000000000120812000083D0B00083F0B000884
:10001000410B0008430B0008450B000800000000DE
:10002000000000000000000000000000470B000876
:10003000490B0008000000004B0B00084D0B0008A6
:10004000C9200008C9200008C9200008C9200008EC
:10005000C9200008C9200008C9200008C9200008DC
:10006000C9200008C9200008C9200008C9200008CC
:10007000C9200008C9200008C9200008C9200008BC
:10008000C9200008C9200008C9200008C9200008AC
:10009000C9200008C9200008C9200008C92000089C
:1000A000C9200008C9200008C9200008C92000088C
:1000B000C9200008C9200008C9200008C92000087C
:1000C000C9200008C9200008C9200008C92000086C
:1000D000C9200008B5050008C9200008550B000814
:1000E000B1060008C9200008C9200008C92000087E
:1000F000C9200008C9200008C9200008C92000083C
:10010000C9200008C9200008C9200008C92000082B
:10011000C9200008C9200008C9200008C92000081B
:10012000C9200008C9200008C9200008C92000080B
:1001300000000000000000000000000000000000BF
:1001400000000000000000000000000000000000AF
:10015000000000000000000000000000000000009F
:10016000000000000000000000000000000000008F
:10017000000000000000000000000000000000007F
:10018000000000000000000000000000000000006F
:10019000000000000000000000000000000000005F
:1001A000000000000000000000000000000000004F
:1001B000000000000000000000000000000000003F
:1001C000000000000000000000000000000000002F
:1001D000000000000000000000000000000000001F
:0401E0005FF8E0F1F3
:1001E40010B5054C237833B9044B13B10448AFF36D
:1001F40000800123237010BD98000020000000003F
:10020400982B000808B5034B1BB103490348AFF30F
:10021400008008BD000000009C000020982B00080E
:1002240010B50A4C01224FF48061204601F09BFC7A
:1002340001224FF40061204601F095FC00224FF4A6
:100244000061204601F08FFC10BD00BF001C01407E
:1002540010B50A4C00224FF40061204601F083FCE3
:1002640001224FF48061204601F07DFC01224FF40D
:100274000061204601F077FC10BD00BF001C014066
:1002840010B5174C01224FF40061204601F06BFCBD
:1002940000224FF48061204601F065FC01224FF4F6
:1002A4008061204601F05FFC00244FF400610C489B
:1002B40001F052FC58B10134B4F57A7FF5D1002233
:1002C4004FF48061064801F04EFC012006E0002254
:1002D4004FF48061024801F046FC002010BD00BFCD
:1002E400001C014038B5044600250EE000224FF4FE
:1002F4000061134801F037FC6400E4B201224FF4BA
:1003040080610F4801F02FFC0135072D0FD8002222
:100314004FF480610A4801F026FC14F0800FE5D008
:1003240001224FF40061064801F01DFCE4E70022BD
:100334004FF48061024801F016FCFFF7A1FF38BDBD
:10034400001C014010B50446FFF76AFF7820FFF750
:10035400C9FF0020FFF7C6FF2046FFF7C3FFFFF7E2
:1003640077FF10BD10B50446FFF75AFF7820FFF75A
:10037400B9FF4020FFF7B6FF2046FFF7B3FFFFF7B2
:1003840067FF10BD10B504468120FFF7DBFF204650
:10039400FFF7D8FF10BD022801D90120704708B526
:1003A400FFF7D0FF002008BD3F2801D90120704786
:1003B40008B54030C0B2FFF7C5FF002008BDA0F16A
:1003C4000F03DBB2312B01D90120704710B504466D
:1003D400A820FFF7B7FF2046FFF7B4FF002010BDA9
:1003E4003F2801D90120704710B50446D320FFF7F8
:1003F400A9FF2046FFF7A6FF002010BD012816D84C
:1004040038B504460D46012901D9012038BDDA204A
:10041400FFF798FF2001C0B26901C9B20844C0B215
:10042400023000F0FE00FFF78DFF0020EEE7012010
:1004340070470F2811D838B505460C460F2901D945
:10044400012038BDD520FFF77DFF2101C9B248192D
:10045400C0B2FFF777FF0020F3E7012070470128BF
:1004640001D90120704710B504468D20FFF76AFFBB
:10047400A000C0B2103000F0FC00FFF763FF0020C2
:1004840010BD08B50220FFF786FF3F20FFF797FF56
:100494000020FFF7A5FF0020FFF786FFA020FFF74D
:1004A40051FFC020FFF74EFF00210846FFF7A6FFCB
:1004B4007F20FFF767FFA420FFF744FFA620FFF784
:1004C40041FF08210020FFF7B4FF0120FFF7C7FF19
:1004D400AF20FFF737FF08BD10B50C4640F0B00061
:1004E400FFF730FF200940F01000FFF72BFF04F066
:1004F4000F00FFF727FF10BD38B5002509E00020E5
:10050400FFF730FF0134E4B214F0800FF7D0013567
:10051400EDB2072D05D800212846FFF7DDFF0024A2
:10052400F2E738BD08B502220021252001F01CFCA9
:10053400252001F051FC034B1A68D36843F02003D3
:10054400D36008BD0006002010B514464FF0FF33F9
:10055400024800F043FC204610BD00BF0006002006
:100564000268104B9A4200D0704730B5BDB000F01D
:1005740031F91D9003238DF878301DAC0A4D2A689B
:100584000A4923A801F0C4FD6C2221A9684601F0A0
:10059400BFFD94E80F0000F033F800232B603DB05A
:1005A40030BD00BF00380140B4000020B800002076
:1005B40008B50F4B1B6813F0200F0AD00C4B5B6877
:1005C400DBB20A2B09D00B490A68501C08600A499F
:1005D4008B540A4800F0EEFC08BD064B1B68013B37
:1005E400054A0021D1540548FFF7BAFFF1E700BFDF
:1005F40000380140B4000020B800002000060020AC
:1006040084B038B504AC84E80F00104A1368581C51
:100614000F4CA4FB0014E40804EB84046100441AA6
:10062400526894420FD0094DC3EB431398002844F9
:100634007C2204A9083001F06BFD2C600020BDE889
:10064400384004B070470220F9E700BF1C010020C5
:10065400CDCCCCCC10B586B0002402940394049481
:1006640005940F4B9A6942F040029A619B6903F02A
:1006740040030193019B4FF480430293094B03937E
:100684000123049302A9084801F046F902222146F5
:10069400282001F069FB282001F09EFB06B010BD64
:1006A40000100240000011100018014008B54FF47A
:1006B400804001F05FFA4FF4004001F05BFA08BD9E
:1006C40000B5BDB0B0F5804F05D0B0F5004F1DD0DA
:1006D4003DB05DF804FB00F07DF81D9000238DF81B
:1006E4007830012321934FF48041164801F034FA05
:1006F400B0FA80F0400922906C2221A9684601F0EA
:1007040007FD1DAB0FCBFFF77BFFE1E700F062F8BD
:100714001D9000238DF87830022321934FF400417B
:10072400084801F019FAB0FA80F0400922906C22CE
:1007340021A9684601F0ECFC1DAB0FCBFFF760FF6D
:10074400C6E700BF00180140054B1B682BB11A46D1
:100754001B69002BFBD110617047014B1860704777
:10076400FC05002008B500F02DF808BD08B500F020
:100774002DF808BD08B50248FFF7E6FF08BD00BF25
:100784000000002008B50248FFF7DEFF08BD00BFE7
:100794001400002008B5FFF7EDFFFFF7F3FF08BDD5
:1007A40010B5064B1C6802E0A36898472469002C26
:1007B400FAD1034801F030FD10BD00BFFC05002054
:1007C400B02B000808B500F009F808BD08B500F022
:1007D40009F808BD08B500F009F808BD08B5FFF729
:1007E40039FF08BD08B5FFF79DFE08BD08B500F048
:1007F40069FD08BD08B5FFF7CDFFFFF7D1FF08BDC0
:1008040008B572B6014801F007FDFBE7CC2B0008E0
:1008140000B591B02822002106A801F087FC00232E
:1008240001930293039304930593012206924FF4D8
:10083400803307930A9202220D920E934FF4E01331
:100844000F9306A800F05AFD80B90F2301930221EB
:100854000291002303934FF480620492059301A84C
:1008640000F07EFF20B911B05DF804FBFFF7C8FF6C
:10087400FFF7C6FF08B500F007FDFFF7C9FF00F05A
:1008840013F800F0A5F800F0BDF801F0C9FA054826
:1008940001F0C2FCFFF7AEFFFFF7F3FDFFF72CFEFC
:1008A400FEE700BFD42B00082DE9F0478AB00025ED
:1008B4000695079508950995414B9A6942F04002BF
:1008C4009A619A6902F040020092009A9A6942F091
:1008D40010029A619A6902F010020192019A9A69CF
:1008E40042F080029A619A6902F080020292029AAE
:1008F4009A6942F020029A619A6902F020020392F6
:10090400039A9A6942F004029A619A6902F0040215
:100914000492049A9A6942F008029A619B6903F06E
:1009240008030593059B274F01224021384601F017
:100934001AF9DFF8948001224FF47861404601F0FF
:1009440012F9DFF8889001224021484601F00BF9A2
:100954004FF0400ACDF818A0012407940894032608
:10096400099606A9384600F0D7FF4FF46073069342
:1009740007940894099606A9404600F0CDFF4FF469
:1009840040630693112307930894099606A94046E9
:1009940000F0C2FF4FF4404306930795089406A95C
:1009A400384600F0B9FFCDF818A0079408940996CA
:1009B40006A9484600F0B0FF0AB0BDE8F08700BFC2
:1009C4000010024000180140001C014000100140CA
:1009D40008B50A480A4B03604FF4E133436000232F
:1009E4008360C36003610C2242618361C36100F0D0
:1009F400C5F900B908BDFFF703FFFBE700060020B7
:100A04000038014008B50A480A4B03604FF4E1334B
:100A1400436000238360C36003610C2242618361ED
:100A2400C36100F0ABF900B908BDFFF7E9FEFBE7CD
:100A3400480600200048004030B589B000230493E4
:100A44000593069307930368354A934204D0354AC5
:100A540093422CD009B030BD334B9A6942F48042A2
:100A64009A619A6902F480420092009A9A6942F06B
:100A740004029A619B6903F004030193019B4FF400
:100A8400007304930223059303230793274C04A9BB
:100A9400204600F041FF4FF4806304930023059344
:100AA4000123069304A9204600F036FFD2E71E4B2B
:100AB400DA6942F48022DA61DA6902F4802202926D
:100AC400029A9A6942F020029A619B6903F020031A
:100AD4000393039B4FF4807304930223059303232E
:100AE4000793134D04A9284600F016FF4FF4007332
:100AF400049300240594069404A9284600F00CFFEE
:100B04000C4A536843F0E06343F0300353602246D9
:100B14002146272001F028F9272001F05DF999E703
:100B24000038014000480040001002400008014025
:100B34000014014000000140FEE7FEE7FEE7FEE787
:100B4400FEE770477047704708B500F0AFFB08BD7B
:100B540008B5024800F02EFA08BD00BF4806002080
:100B640082B00E4B9A6942F001029A619A6902F0CE
:100B740001020092009ADA6942F08052DA61DB697C
:100B840003F080530193019B054A536823F0E0630B
:100B940043F00073536002B0704700BF001002407E
:100BA40000000140026802F10C0353E8003F23F403
:100BB40090730C3242E800310029F3D1026802F14B
:100BC400140353E8003F23F00103143242E80031D8
:100BD4000029F3D1036B012B05D0202380F8423088
:100BE400002303637047026802F10C0353E8003FDB
:100BF40023F010030C3242E800310029F3D1ECE772
:100C040090F84130DBB2212B01D002207047836879
:100C1400B3F5805F17D0036A5A1C02621A7803681E
:100C24005A60C38C9BB2013B9BB2C3844BB902682C
:100C3400D36823F08003D3600268D36843F0400391
:100C4400D360002070470369002BE4D1036A1B883A
:100C54000268C3F308035360036A02330362E0E7E4
:100C640010B504460268136923F44053C1680B436A
:100C7400136183680269134342691A430168CB68AC
:100C840023F4B05323F00C031343CB60026853697D
:100C940023F4407381690B4353610268134B9A42F6
:100CA40020D000F019FE024602EB820202EB82021F
:100CB40063689B00B2FBF3F20D48A0FB02314909C3
:100CC400642303FB11231B013233A0FB03235B09C1
:100CD40003F0F00202EB011203F00F032168134446
:100CE4008B6010BD00F008FE0246DDE700380140CD
:100CF4001F85EB512DE9F84305460F4616469946E4
:100D0400DDF820802C68246837EA04030CBF4FF018
:100D1400010C4FF0000CB4452DD1B8F1FF3FF1D0D8
:100D2400B8F1000F05D000F0CDFAA0EB0900404562
:100D3400E8D92A6802F10C0353E8003F23F4D07386
:100D44000C3242E800310029F3D12A6802F114037D
:100D540053E8003F23F00103143242E80031002934
:100D6400F3D1202385F8413085F84230002385F8FB
:100D74004030032000E00020BDE8F88360B310B5E4
:100D8400044690F8413013B3242384F84130226898
:100D9400D36823F40053D3602046FFF761FF226831
:100DA400136923F4904313612268536923F02A03DF
:100DB40053612268D36843F40053D3600020606415
:100DC400202384F8413084F84230606310BD80F8F9
:100DD4004030FFF731FED7E7012070472DE9F0419D
:100DE40082B01E4690F84130DBB2202B4BD1044632
:100DF4000D46904600294AD00AB9012044E0002358
:100E04004364212380F8413000F05CFA0746A4F8DB
:100E14002480A4F82680A368B3F5805F02D04FF045
:100E240000080FE02369FBB14FF000080AE038F82E
:100E3400023B2268C3F308035360E28C92B2013A86
:100E440092B2E284E38C9BB28BB100963B460022C3
:100E540080212046FFF74EFFD8B9002DE7D015F8C2
:100E6400012B23685A60E8E7A8460025EAE70096C4
:100E74003B46002240212046FFF73CFF58B920237F
:100E840084F8413000E0022002B0BDE8F081012086
:100E9400FAE70320F8E70320F6E7704708B501688E
:100EA400CA6822F04002CA60202280F84120FFF77D
:100EB400F4FF002008BD7047704708B5406A00235E
:100EC400C385C384FFF7F8FF08BD704790F842302C
:100ED400DBB2222B69D18368B3F5805F4FD0826A7D
:100EE400B3F5805F04D0002B56D10369002B53D196
:100EF40003685B681370836A01338362C38D9BB29A
:100F0400013B9BB2C385002B51D100B583B002686D
:100F1400D36823F02003D3600268D36823F480737A
:100F2400D3600268536923F001035361202380F8DE
:100F3400423000234363036B012B33D1002303634B
:100F4400026802F10C0353E8003F23F010030C3253
:100F540042E800310029F3D103681A6812F0100F37
:100F640006D0002201921A6801925B680193019BEA
:100F7400818DFFF7AAFF002003B05DF804FB02692E
:100F8400002AACD1826A03685B68C3F30803138048
:100F9400836A02338362B1E703685B6803F07F030B
:100FA4001370A8E7FFF787FFE5E7022070470020EA
:100FB4007047000030B583B0044602681368D068F7
:100FC400516913F00F0505D113F0200F02D010F072
:100FD400200F19D12DB111F0010119D110F4907F16
:100FE40016D1216B01297DD013F0800F03D010F0AE
:100FF400800F40F0188113F0400F03D010F0400F21
:1010040040F0158103B030BD2046FFF75FFFF9E7DC
:1010140013F0010F06D010F4807F03D0626C42F00D
:101024000102626413F0040F04D019B1626C42F03F
:101034000202626413F0020F04D019B1626C42F030
:101044000402626413F0080F07D010F0200F00D1DF
:1010540019B1626C42F008026264626C002AD1D059
:1010640013F0200F02D010F0200F29D123685B6900
:1010740003F04003626C12F0080F00D163B3204602
:10108400FFF790FD23685B6913F0400F20D02268BE
:1010940002F1140353E8003F23F04003143242E802
:1010A40000310029F3D1E36B73B1634A5A63E06BF7
:1010B40000F092FD0028A5D0E06B436B9847A1E7B0
:1010C4002046FFF703FFD1E72046FFF7F5FE99E737
:1010D4002046FFF7F1FE95E72046FFF7EDFE0023DB
:1010E40063648FE713F0100F3FF47EAF10F0100F1E
:1010F4003FF47AAF0023019313680193536801937B
:10110400019B536913F0400F51D0E26B13685B6885
:101114009BB2002B3FF476AFA18D99427FF672AF5C
:10112400E3859369202B37D0226802F10C0353E83E
:10113400003F23F480730C3242E800310029F3D1DC
:10114400226802F1140353E8003F23F00103143230
:1011540042E800310029F3D1226802F1140353E874
:10116400003F23F04003143242E800310029F3D158
:10117400202384F8423000232363226802F10C0305
:1011840053E8003F23F010030C3242E800310029F9
:10119400F3D1E06B00F0FCFC02236363A18DE38DCB
:1011A4009BB2C91A89B22046FFF78FFE2AE7A18DA8
:1011B400E38D9BB2C91A89B2E38D9BB2002B3FF435
:1011C40021AF00293FF41EAF226802F10C0353E85B
:1011D400003F23F490730C3242E800300028F3D12E
:1011E400226802F1140353E8003F23F00103143290
:1011F40042E800300028F3D1202384F84230002351
:101204002363226802F10C0353E8003F23F0100328
:101214000C3242E800300028F3D1022363632046F5
:10122400FFF753FEEEE62046FFF7EAFCEAE6204627
:10123400FFF734FEE6E600BFBF0E000810B5044613
:101244000E4B18784FF47A73B3FBF0F30C4A106822
:10125400B0FBF3F000F0CEFD68B90F2C01D90120EA
:101264000AE0002221464FF0FF3000F07DFD054BDF
:101274001C60002000E0012010BD00BF28000020F9
:10128400300000202C00002008B5074A136843F002
:1012940010031360032000F055FD0F20FFF7CEFF6D
:1012A400FFF75EFC002008BD00200240034A1168DD
:1012B400034B1B780B441360704700BF900600205B
:1012C40028000020014B1868704700BF90060020DA
:1012D40082B0084B1B68084AA2FB03235B0A00FB8D
:1012E40003F3019300BF019B5A1E0192002BF9D115
:1012F40002B0704730000020D34D6210002800F087
:10130400F18170B582B00446036813F0010F2CD04C
:10131400994B5B6803F00C03042B1DD0964B5B6860
:1013240003F00C03082B12D06368B3F5803F41D05F
:10133400002B55D103F1804303F504331A6822F4DA
:1013440080321A601A6822F480221A6037E08A4BCD
:101354005B6813F4803FE7D0874B1B6813F4003FAE
:1013640003D06368002B00F0BF81236813F0020FE1
:1013740075D0814B5B6813F00C0F5FD07E4B5B68BC
:1013840003F00C03082B54D02369002B00F08A804F
:101394007A4B01221A60FFF795FF0546764B1B68CE
:1013A40013F0020F75D1FFF78DFF401B0228F5D90A
:1013B40003209EE1704A136843F48033136063682A
:1013C40043B3FFF77FFF05466B4B1B6813F4003FE5
:1013D400CBD1FFF777FF401B6428F5D9032088E1C0
:1013E400B3F5A02F09D0644B1A6822F480321A6036
:1013F4001A6822F480221A60E1E703F18043A3F51E
:101404003C331A6842F480221A601A6842F480322B
:101414001A60D4E7FFF756FF0546574B1B6813F4D1
:10142400003FA2D0FFF74EFF401B6428F5D90320EC
:101434005FE1514B5B6813F4803FA5D14E4B1B68B1
:1014440013F0020F03D02369012B40F04F814A4A65
:10145400136823F0F803616943EAC1031360236846
:1014640013F0080F33D0A369002B5CD0434B012247
:10147400C3F88024FFF726FF05463F4B5B6A13F051
:10148400020F21D1FFF71EFF401B0228F5D90320CC
:101494002FE1394A136823F0F803616943EAC10371
:1014A4001360DCE7354B00221A60FFF70BFF05469B
:1014B400314B1B6813F0020FD1D0FFF703FF401B21
:1014C4000228F5D9032014E10120FFF701FF236866
:1014D40013F0040F00F09680274BDB6913F0805F54
:1014E40034D1254BDA6942F08052DA61DB6903F0CA
:1014F40080530193019B0125214B1B6813F4807FCA
:1015040026D0E368012B3DD0002B53D103F1804357
:1015140003F504331A6A22F001021A621A6A22F0ED
:1015240004021A6233E0154B0022C3F88024FFF74B
:10153400C9FE0546104B5B6A13F0020FC7D0FFF7D4
:10154400C1FE401B0228F5D90320D2E00025D3E7D1
:101554000B4A136843F480731360FFF7B3FE064627
:10156400074B1B6813F4807FCBD1FFF7ABFE801BC6
:101574006428F5D90320BCE0001002400000424278
:10158400007000405F4A136A43F001031362E3688A
:1015940033B3FFF797FE06465A4B1B6A13F0020F4C
:1015A4002FD1FFF78FFE801B41F288339842F3D985
:1015B40003209EE0052B09D0524B1A6A22F0010247
:1015C4001A621A6A22F004021A62E0E74D4B1A6AA0
:1015D40042F004021A621A6A42F001021A62D6E761
:1015E400FFF770FE0646474B1B6A13F0020F08D044
:1015F400FFF768FE801B41F288339842F3D9032039
:1016040077E0E5B9E369002B72D03E4A526802F0F4
:101614000C02082A56D0022B17D03B4B00221A6624
:10162400FFF750FE0446374B1B6813F0007F47D08A
:10163400FFF748FE001B0228F5D9032059E0314A80
:10164400D36923F08053D361DCE72F4B00221A6661
:10165400FFF738FE05462B4B1B6813F0007F06D0BE
:10166400FFF730FE401B0228F5D9032041E0236A2E
:10167400B3F5803F1AD023494B6823F47413226ACC
:10168400606A024313434B601F4B01221A66FFF743
:1016940019FE04461B4B1B6813F0007F0ED1FFF7A5
:1016A40011FE001B0228F5D9032022E0154A5368D5
:1016B40023F40033A1680B435360DCE7002018E0F7
:1016C400002016E0012B16D00E4B5B6803F480312A
:1016D400226A914211D103F47013626A93420ED1CB
:1016E400002006E001207047012002E0012000E014
:1016F400002002B070BD0120FBE70120F9E70120C2
:10170400F7E700BF00100240000042420F4B5B6845
:1017140003F00C02082A01D00D487047C3F383423A
:101724000C49885C13F4803F0BD0084B5B68C3F30F
:101734004043094AD35C064A02FB00F0B0FBF3F0D5
:101744007047064B03FB00F0704700BF00100240D7
:1017540000127A00EC2B0008FC2B000800093D0065
:10176400002800F0A08070B50D460446524B1B685B
:1017740003F007038B420BD24F4A136823F007038D
:101784000B431360136803F007038B4240F08D8012
:10179400236813F0020F17D013F0040F04D0474A44
:1017A400536843F4E0635360236813F0080F04D0D4
:1017B400424A536843F460535360404A536823F0E9
:1017C400F003A1680B435360236813F0010F31D079
:1017D4006368012B20D0022B25D0384A126812F0FE
:1017E400020F64D035494A6822F0030213434B6068
:1017F400FFF768FD0646314B5B6803F00C03626833
:10180400B3EB820F16D0FFF75DFD801B41F28833E6
:101814009842F0D9032045E0284A126812F4003FA8
:10182400E0D101203EE0254A126812F0007FD9D1B0
:10183400012037E0204B1B6803F00703AB420AD9B1
:101844001D4A136823F007032B431360136803F046
:101854000703AB422DD1236813F0040F06D0174AB7
:10186400536823F4E063E1680B435360236813F087
:10187400080F07D0114A536823F46053216943EADF
:10188400C1035360FFF742FF0C4B5B68C3F30313C0
:101894000B4AD35CD8400B4B18600B4B1868FFF70E
:1018A400CDFC002070BD012070470120FAE7012023
:1018B400F8E70120F6E700BF0020024000100240D4
:1018C400002C0008300000202C000020014B186878
:1018D400704700BF3000002008B5FFF7F7FF044B46
:1018E4005B68C3F30223034AD35CD84008BD00BF3E
:1018F40000100240102C000808B5FFF7E7FF044B66
:101904005B68C3F3C223034AD35CD84008BD00BF5D
:1019140000100240102C000870B582B00024A446C8
:10192400B0E0874DAA4210D007D9864DAA420CD008
:1019340005F58035AA4208D013E0A5F58015AA4222
:1019440003D005F57025AA4207D18A68002A62D01F
:10195400012A5BD04361082403E0A5F58015AA425F
:10196400F3D0BEF1FF0F58D80646BEF1FF0F56D88C
:101974004FEA8C0233680F25954023EA050304FAE5
:1019840002F2134333604B6813F0805F78D06E4BE0
:101994009A6942F001029A619B6903F00103019381
:1019A400019B4FEA9C02951C684B53F825600CF090
:1019B40003039D000F23AB4026EA0306644B9842C1
:1019C40033D003F58063984200F0988003F5806378
:1019D400984200F0958003F58063984200F092806D
:1019E40003F58063984200F08F8003F5806398428A
:1019F40019D006231AE0CC68B3E7CC680434B0E706
:101A0400CC680834ADE7CC680C34AAE70361082439
:101A1400A7E70024A5E70424A3E7061DA5E7ACF186
:101A240008029200A6E7052300E00023AB403343FD
:101A34000232464D45F822304B6813F4801F65D0BE
:101A4400444A936843EA0E0393604B6813F4001FFF
:101A540062D0404AD36843EA0E03D3604B6813F460
:101A6400003F5FD03B4A536843EA0E0353604B6820
:101A740013F4803F5CD0374A136843EA0E031360C3
:101A84000CF1010C0A6832FA0CF357D0012303FA63
:101A94000CF302EA030E33EA0202F1D14A68122A75
:101AA4003FF63FAF122A3FF65CAF01A555F822F08E
:101AB4004F190008FB190008051A0008171A000836
:101AC40067190008671900086719000867190008F2
:101AD40067190008671900086719000867190008E2
:101AE40067190008671900086719000867190008D2
:101AF40067190008FF1900080B1A0008012395E76D
:101B0400022393E7032391E704238FE7114A9368A1
:101B140023EA0E03936098E70E4AD36823EA0E0380
:101B2400D3609BE70B4A536823EA0E0353609EE796
:101B3400084A136823EA0E031360A1E702B070BDDC
:101B4400000022100000311000100240000001408B
:101B540000080140000401408368194201D00120BB
:101B64007047002070470AB10161704709040161A0
:101B74007047000008B5054B5B69034200D108BDFE
:101B8400024B5861FEF79CFDF9E700BF00040140D9
:101B940090F82130DBB2022B06D0042383630023A8
:101BA40080F82030012070470268136823F00E0388
:101BB40013600268136823F001031360036CC16BA4
:101BC400012202FA03F34B6080F82120002380F8FD
:101BD400203018467047000008B590F82130DBB279
:101BE400022B03D004238363012008BD0268136819
:101BF40023F00E0313600268136823F001031360DB
:101C040003684C4A93424ED9783A934224D0143212
:101C1400934230D0143293422FD0143293422FD0B7
:101C2400143293422FD0143293422FD01432934261
:101C34002FD002F5627293422ED0143293422DD0EB
:101C4400143293422CD01432934202D04FF4803297
:101C540003E04FF4805200E00122374B5A60012325
:101C640080F82130002380F82030436B002B5ED0B5
:101C740098470020B9E71022EFE74FF48072ECE7B1
:101C84004FF48052E9E74FF48032E6E74FF48012D4
:101C9400E3E74FF08072E0E70122DEE71022DCE7A1
:101CA4004FF48072D9E7254A934224D014329342E8
:101CB40025D01432934224D01432934224D01432C7
:101CC400934224D01432934224D01432934224D029
:101CD40002F56272934223D01432934222D014321A
:101CE400934221D01432934202D04FF4803203E065
:101CF4004FF4805200E00122114B5A60AFE71022EA
:101D0400FAE74FF48072F7E74FF48052F4E74FF4A8
:101D14008032F1E74FF48012EEE74FF08072EBE788
:101D24000122E9E71022E7E74FF48072E4E700209C
:101D34005BE700BF8000024000040240080002404C
:101D440000000240074AD36823F4E0631B041B0C21
:101D5400000200F4E060034343F0BF6343F4003344
:101D6400D360704700ED00E000B5194BDB68C3F3A6
:101D74000223C3F1070CBCF1040F28BF4FF0040C7D
:101D840003F1040EBEF1060F18D9033B4FF0FF3EDA
:101D94000EFA0CFC21EA0C0199400EFA03F322EA34
:101DA4000303194300280BDB0901C9B200F16040A9
:101DB40000F5614080F800135DF804FB0023E5E7BB
:101DC40000F00F000901C9B2024B1954F4E700BF37
:101DD40000ED00E014ED00E0002807DB00F01F0236
:101DE400400901239340024A42F82030704700BF63
:101DF40000E100E00138B0F1807F0BD24FF0E02326
:101E04005861054AF02182F82310002098610722C6
:101E14001A6170470120704700ED00E07047000030
:101E240008B50B480B4B03600B4B436000238360E6
:101E3400C3604FF48042026143618361C361036202
:101E440000F03EF800B908BDFEF7DAFCFBE700BF7E
:101E54009406002000540040A086010010B586B00E
:101E6400002302930393049305930268114B9A424F
:101E740001D006B010BD104CA36943F00803A36160
:101E8400A36903F008030093009BC0230293122369
:101E940003930323059302A90848FFF73DFDE36973
:101EA40043F40013E361E36903F400130193019B1A
:101EB400DFE700BF0054004000100240000C014066
:101EC400002800F0CC8070B5044690F83D30002B1B
:101ED40077D0242384F83D302268136823F001036B
:101EE40013602268136843F4004313602268136884
:101EF40023F400431360FFF7EFFC62685A4B9A42E5
:101F040064D85A4B98428CBF00230123002B40F025
:101F1400A8805749A1FB00318B0C25686A6822F020
:101F24003F0242EA91426A6021680A6A22F03F0253
:101F340066684D4DAE424FD8013313430B6221689E
:101F4400CA6922F44F4222F0FF026668464B9E4261
:101F54004CD8431E7600B3FBF6F3013340F6FC7015
:101F6400034278D0C3F30B031343CB6121680B689E
:101F740023F0C003E269206A024313430B60216823
:101F84008B6823F4034323F0FF032269E0680243D0
:101F940013438B602168CB6823F0FF036269A06957
:101FA40002431343CB602268136843F001031360B8
:101FB40000202064202384F83D30206384F83E0010
:101FC40070BD80F83C30FFF749FF82E7294B984207
:101FD4008CBF0023012399E74FF4967505FB03F3A7
:101FE400254DA5FB03539B090133A6E7A368BBB9A1
:101FF400451E06EB460CB5FBFCF50135C5F30B0598
:10200400B5FA85F56D0945BBC3B9013806EB46033E
:10201400B0FBF3F30133C3F30B0343F40043A3E72F
:10202400451E06EB860C0CEB8C0CB5FBFCF5013560
:10203400C5F30B05B5FA85F56D09E4E7013806EB40
:10204400860303EB8303B0FBF3F30133C3F30B0306
:1020540043F4404388E7042386E7012384E701200F
:1020640070470120ACE700BFA08601007F841E00FA
:1020740083DE1B43FF083D00D34D6210FFF7CEFE05
:102084000B480C490C4A002302E0D458C4500433D2
:10209400C4188C42F9D3094A094C002301E01360A7
:1020A4000432A242FBD300F00FF8FEF7E3FB7047C3
:1020B40000000020980000208C2C000898000020CC
:1020C400FC060020FEE7000070B500260C4D0D4C08
:1020D400641BA410A64209D100F05CFD00260A4D41
:1020E4000A4C641BA410A64205D170BD55F8043BEC
:1020F40098470136EEE755F8043B98470136F2E776
:10210400842C0008842C0008842C0008882C0008E7
:102114000A44914200F1FF3300D1704710B511F821
:10212400014B914203F8014FF9D110BD034602441B
:10213400934200D1704703F8011BF9E770B50E46CE
:10214400054618B183690BB900F044FAAB69AC6871
:1021540013B9284600F03EFA2C4B9C4220D16C68FF
:10216400636EDB0705D4A389980502D4A06D00F043
:10217400CFFAA38919071DD52369DBB1013EA368F2
:1021840016F8011F013BA36039BB002B38DA224645
:102194000A21284600F048F8013011D00A2511E040
:1021A4001B4B9C4201D1AC68DAE71A4B9C4208BF36
:1021B400EC68D5E72146284600F088F80028DDD0F1
:1021C4004FF0FF35636EDA0705D4A3899B0502D46B
:1021D400A06D00F09EFA284670BD002B04DAA269B7
:1021E4009A4206DC0A2904D023685A1C226019701A
:1021F400C5E72246284600F017F80130BFD1DFE7D3
:102204000A2523685A1C22601D70DBE73C2C000859
:102214005C2C00081C2C0008024B01461868FFF7D0
:102224008DBF00BF34000020F8B50E4614460546A5
:1022340018B183690BB900F0CDF9214B9C422BD125
:102244006C68A369A360A3891A072FD523696BB3AC
:1022540023692068F6B2C01A63693746834204DCF6
:102264002146284600F022F930BBA3680130013B27
:10227400A36023685A1C22601E706369834204D0E1
:10228400A389DB0706D50A2E04D12146284600F08F
:102294000DF988B93846F8BD0A4B9C4201D1AC68A7
:1022A400CFE7094B9C4208BFEC68CAE721462846A1
:1022B40000F00CF80028CBD04FF0FF37EAE700BF5E
:1022C4003C2C00085C2C00081C2C0008324B70B518
:1022D4001D6806460C4625B1AB6913B9284600F0C3
:1022E40079F92E4B9C420FD16C68A389B4F90C2068
:1022F40019072CD4DD0611D40923336042F04003BE
:102304004FF0FF30A3813EE0254B9C4201D1AC68E5
:10231400EBE7244B9C4208BFEC68E6E7580712D56C
:10232400616B41B104F14403994202D0304600F09C
:1023340057FA00236363A38923F02403A3810023B2
:10234400636023692360A38943F00803A38123699D
:102354004BB9A38903F42073B3F5007F03D021465E
:10236400304600F0FDF9A089B4F90C2010F0010307
:102374000AD00023A36063695B42A361236943B964
:1023840010F08000BAD170BD810758BF6369A360A3
:10239400F4E70020F7E700BF340000203C2C0008DD
:1023A4005C2C00081C2C00088A89F8B50546100727
:1023B4000C4657D44B68002B04DC0B6C002B01DC5F
:1023C4000020F8BDE66A002EFAD0002312F48052F1
:1023D4002F682B6032D0606DA3895A0705D56368D6
:1023E400C01A636B0BB1236CC01A00230246E66A61
:1023F4002846216AB047431CA38906D129681D29B0
:102404002CD8294ACA40D60728D5002262602269FE
:10241400D904226004D5421C01D12B6803B960653C
:10242400616B2F600029CBD004F14403994202D0A0
:10243400284600F0D5F900206063C2E7216A012331
:102444002846B047411CC7D12B68002BC4D01D2B94
:1024540001D0162B01D12F60B2E7A38943F04003CA
:10246400A381AEE70F69002FAAD0930718BF0023FA
:102474000E6808BF4B69F61B0F608B60002E9FDD52
:1024840033463A462846216AD4F828C0E047002853
:1024940006DCA3894FF0FF3043F04003A38190E7AB
:1024A4000744361AEAE700BF0100402038B50B693B
:1024B40005460C4613B90025284638BD18B1836972
:1024C4000BB900F087F8144B9C421BD16C68B4F92B
:1024D4000C30002BEFD0626ED00704D4990502D4DF
:1024E400A06D00F015F928462146FFF75DFF636EE5
:1024F4000546DA07E0D4A3899B05DDD4A06D00F07E
:1025040008F9D9E7054B9C4201D1AC68DFE7044BDD
:102514009C4208BFEC68DAE73C2C00085C2C0008FD
:102524001C2C0008002310B50446C0E90033C0E9A0
:102534000433836081814366C28183611946082222
:102544005C30FFF7F3FD054B24626362044BA36226
:10255400044BE362044B236310BD00BFBD29000894
:10256400DF290008172A00083B2A0008014900F067
:10257400AFB800BFB1240008682270B54D1E5543A2
:102584000E4605F1740100F093F9044640B10021B0
:10259400C0E900160C30A06005F16802FFF7C6FD23
:1025A400204670BD014800F0B3B800BFE906002022
:1025B400014800F0AEB800BFE9060020014800F071
:1025C400A7B800BFEA060020014800F0A2B800BF87
:1025D400EA06002010B50446FFF7F0FFA3691BB11B
:1025E400BDE81040FFF7F0BFC4E912332365134B75
:1025F400134A1B68A262A34208BF0123204608BFF6
:10260400A36100F01FF86060204600F01BF8A06092
:10261400204600F017F800220421E0606068FFF70C
:1026240081FF01220921A068FFF77CFF0222122109
:10263400E068FFF777FF0123A361D1E7182C0008B6
:1026440071250008F8B50746FFF7ACFF1E4B1E685E
:10265400B36913B93046FFF7BDFF4836D6E90134F4
:10266400013B03D533680BB33668F7E7B4F90C5074
:10267400D5B9164B04F15800E360656600F047F8DD
:10268400FFF796FF08222946C4E90155C4E9045519
:102694002560A56104F15C00FFF748FDC4E90D5510
:1026A400C4E912552046F8BD6834D9E704213846F8
:1026B400FFF762FF044630600028D5D1FFF778FFAA
:1026C4000C233B60EEE700BF182C00080100FFFF5D
:1026D4002DE9F84306468846002700F14804D4E96A
:1026E4000195B9F1010905D52468002CF7D13846C4
:1026F400BDE8F883AB89012B07D9B5F90E30013356
:1027040003D029463046C04707436835E9E7704798
:102714007047704770B50E46B1F90E101446002983
:102724001D4696B008DA0022B6F90C302A601A0663
:1027340010D44FF480630EE06A4600F0A3F9002839
:10274400F1DB019A02F47042A2F500535A425A4155
:102754002A60EEE740230020236016B070BD00001D
:102764008B8973B59D0706460C4607D504F14703CC
:10277400236023610123636102B070BD6A4601AB2B
:10278400FFF7C8FF00990546304600F091F848B9B4
:10279400B4F90C309A05EFD423F0030343F0020399
:1027A400A381E3E70D4BB362A389206043F0800368
:1027B400A381009B20616361019B5BB13046B4F946
:1027C4000E1000F071F928B1A38923F0030343F03C
:1027D4000103A381A0890543A581CDE771250008E4
:1027E40038B50546002940D051F8043C0C1F002B95
:1027F400B8BFE41800F07AF91C4A136833B963606F
:1028040014602846BDE8384000F076B9A34208D9E0
:10281400206821188B4201BF19685B680918216080
:10282400EDE71A465B680BB1A342FAD91168501858
:10283400A0420BD120680144501883421160E0D1BA
:1028440018685B68014411605360DAE702D90C230D
:102854002B60D6E7206821188B4201BF19685B689A
:102864000918216063605460CBE738BDEC06002092
:1028740070B50E4E0C463168054611B900F08CF85F
:1028840030602146284600F087F8431C0AD0C41C57
:1028940024F00304A04207D0211A284600F07CF853
:1028A400013001D14FF0FF34204670BDF006002006
:1028B4002DE9F041CD1C25F0030508350C2D38BF5A
:1028C4000C25002D074601DBA94205D90C2300265F
:1028D4003B603046BDE8F0812E4E00F007F93368C6
:1028E4001C4634BB29463846FFF7C2FF431C044646
:1028F4004DD134682646002E40D1236831463846EF
:1029040004EB030800F048F880453AD12168033508
:102914006D1A25F0030508350C2D38BF0C253846F3
:102924002946FFF7A5FF01302BD023682B442360F1
:102934000EE02268521B1ED40B2A16D96119A34239
:10294400256018BF5960636808BF316062514B60ED
:10295400384604F10B0600F0CFF826F00706231DD5
:10296400F21AB6D09B1BA350B3E76268A3420CBF14
:1029740032605A60ECE723466468B2E7344676680E
:10298400B9E70C2338463B6000F0B6F8A1E72560B0
:10299400DEE700BFEC06002038B50023054D0446F1
:1029A40008462B6000F0E8F8431C02D12B6803B101
:1029B400236038BDF406002010B50C46B1F90E10A2
:1029C40000F0A0F80028ABBF636DA3891B1823F4A3
:1029D4008053ACBF6365A38110BD2DE9F0411F4650
:1029E4008B890546DB050C46164605D502230022D5
:1029F400B1F90E1000F068F8A389324623F480532D
:102A0400A38128463B46B4F90E10BDE8F04100F01E
:102A140017B810B50C46B1F90E1000F055F8431C68
:102A2400A38915BF606523F4805343F48053A381C5
:102A340018BFA38110BDB1F90E1000F013B8000047
:102A440038B50446084611460022054D2A601A4648
:102A5400FDF77AFD431C02D12B6803B1236038BD16
:102A6400F406002038B50023054D044608462B60C3
:102A740000F05AF8431C02D12B6803B1236038BD1F
:102A8400F406002038B50023064D044608461146D6
:102A94002B6000F051F8431C02D12B6803B1236072
:102AA40038BD00BFF406002038B50023054D0446A8
:102AB40008462B6000F048F8431C02D12B6803B190
:102AC400236038BDF406002038B504460846114694
:102AD4000022054D2A601A4600F03EF8431C02D13C
:102AE4002B6803B1236038BDF40600200148FFF7CA
:102AF4000FBE00BFE80600200148FFF70ABE00BF72
:102B0400E806002038B50446084611460022054D63
:102B14002A601A4600F028F8431C02D12B6803B13E
:102B2400236038BDF40600205822024B4FF0FF30DA
:102B34001A607047F40600205822024B4FF0FF3011
:102B44001A607047F40600205822024B00201A60D5
:102B5400704700BFF40600205822024B4FF0FF30AC
:102B64001A607047F40600205822024B4FF0FF30E1
:102B74001A607047F4060020044A05491368002BC4
:102B840008BF0B461844106018467047F80600202A
:102B940000070020F8B500BFF8BC08BC9E4670478B
:0C2BA400F8B500BFF8BC08BC9E467047A6
:102BB000696E697420646576696365732E0D000023
:102BC000737464696F0000006B6579004572726F01
:102BD000722E0D00536D61727420446576696365D1
:102BE0002053746172742E0D00000000020304056E
:102BF000060708090A0B0C0D0E0F10100102000049
:102C0000000000000000000001020304060708099C
:102C10000000000001020304380000200000000052
:102C200000000000000000000000000000000000A4
:102C30000000000000000000000000000000000094
:102C40000000000000000000000000000000000084
:102C50000000000000000000000000000000000074
:102C60000000000000000000000000000000000064
:0C2C700000000000000000000000000058
:082C7C00B0FEFF7F0100000023
:042C84000902000839
:042C8800E50100085A
:102C8C00C82B0008000000006907000800000000C5
:102C9C0000000000C02B00080000000071070008B5
:102CAC000000000000000000010000001000000007
:102CBC000024F40038000020000000003C2C000828
:102CCC005C2C00081C2C0008000000000000000018
:102CDC0000000000000000000000000000000000E8
:102CEC0000000000000000000000000000000000D8
:102CFC0000000000000000000000000000000000C8
:102D0C0000000000000000000000000000000000B7
:082D1C000000000000000000AF
:04000005080020814E
:00000001FF
